{"abi":[{"type":"constructor","inputs":[],"stateMutability":"nonpayable"},{"type":"function","name":"DOMAIN_SEPARATOR","inputs":[],"outputs":[{"name":"result","type":"bytes32","internalType":"bytes32"}],"stateMutability":"view"},{"type":"function","name":"INITIAL_SUPPLY","inputs":[],"outputs":[{"name":"","type":"uint256","internalType":"uint256"}],"stateMutability":"view"},{"type":"function","name":"MAX_SUPPLY","inputs":[],"outputs":[{"name":"","type":"uint256","internalType":"uint256"}],"stateMutability":"view"},{"type":"function","name":"allowance","inputs":[{"name":"owner","type":"address","internalType":"address"},{"name":"spender","type":"address","internalType":"address"}],"outputs":[{"name":"result","type":"uint256","internalType":"uint256"}],"stateMutability":"view"},{"type":"function","name":"approve","inputs":[{"name":"spender","type":"address","internalType":"address"},{"name":"amount","type":"uint256","internalType":"uint256"}],"outputs":[{"name":"","type":"bool","internalType":"bool"}],"stateMutability":"nonpayable"},{"type":"function","name":"balanceOf","inputs":[{"name":"owner","type":"address","internalType":"address"}],"outputs":[{"name":"result","type":"uint256","internalType":"uint256"}],"stateMutability":"view"},{"type":"function","name":"decimals","inputs":[],"outputs":[{"name":"","type":"uint8","internalType":"uint8"}],"stateMutability":"pure"},{"type":"function","name":"mint","inputs":[{"name":"to","type":"address","internalType":"address"},{"name":"amount","type":"uint256","internalType":"uint256"}],"outputs":[],"stateMutability":"nonpayable"},{"type":"function","name":"name","inputs":[],"outputs":[{"name":"","type":"string","internalType":"string"}],"stateMutability":"pure"},{"type":"function","name":"nonces","inputs":[{"name":"owner","type":"address","internalType":"address"}],"outputs":[{"name":"result","type":"uint256","internalType":"uint256"}],"stateMutability":"view"},{"type":"function","name":"owner","inputs":[],"outputs":[{"name":"","type":"address","internalType":"address"}],"stateMutability":"view"},{"type":"function","name":"permit","inputs":[{"name":"owner","type":"address","internalType":"address"},{"name":"spender","type":"address","internalType":"address"},{"name":"value","type":"uint256","internalType":"uint256"},{"name":"deadline","type":"uint256","internalType":"uint256"},{"name":"v","type":"uint8","internalType":"uint8"},{"name":"r","type":"bytes32","internalType":"bytes32"},{"name":"s","type":"bytes32","internalType":"bytes32"}],"outputs":[],"stateMutability":"nonpayable"},{"type":"function","name":"symbol","inputs":[],"outputs":[{"name":"","type":"string","internalType":"string"}],"stateMutability":"pure"},{"type":"function","name":"totalSupply","inputs":[],"outputs":[{"name":"result","type":"uint256","internalType":"uint256"}],"stateMutability":"view"},{"type":"function","name":"transfer","inputs":[{"name":"to","type":"address","internalType":"address"},{"name":"amount","type":"uint256","internalType":"uint256"}],"outputs":[{"name":"","type":"bool","internalType":"bool"}],"stateMutability":"nonpayable"},{"type":"function","name":"transferFrom","inputs":[{"name":"from","type":"address","internalType":"address"},{"name":"to","type":"address","internalType":"address"},{"name":"amount","type":"uint256","internalType":"uint256"}],"outputs":[{"name":"","type":"bool","internalType":"bool"}],"stateMutability":"nonpayable"},{"type":"event","name":"Approval","inputs":[{"name":"owner","type":"address","indexed":true,"internalType":"address"},{"name":"spender","type":"address","indexed":true,"internalType":"address"},{"name":"amount","type":"uint256","indexed":false,"internalType":"uint256"}],"anonymous":false},{"type":"event","name":"TokensMinted","inputs":[{"name":"to","type":"address","indexed":true,"internalType":"address"},{"name":"amount","type":"uint256","indexed":false,"internalType":"uint256"}],"anonymous":false},{"type":"event","name":"Transfer","inputs":[{"name":"from","type":"address","indexed":true,"internalType":"address"},{"name":"to","type":"address","indexed":true,"internalType":"address"},{"name":"amount","type":"uint256","indexed":false,"internalType":"uint256"}],"anonymous":false},{"type":"error","name":"AllowanceOverflow","inputs":[]},{"type":"error","name":"AllowanceUnderflow","inputs":[]},{"type":"error","name":"InsufficientAllowance","inputs":[]},{"type":"error","name":"InsufficientBalance","inputs":[]},{"type":"error","name":"InvalidPermit","inputs":[]},{"type":"error","name":"Permit2AllowanceIsFixedAtInfinity","inputs":[]},{"type":"error","name":"PermitExpired","inputs":[]},{"type":"error","name":"TotalSupplyOverflow","inputs":[]}],"bytecode":{"object":"0x60a080604052346100a157336080526805345cdf77eb68f44c80546b033b2e3c9fd0803ce80000009182820191821061009457556387a211a2600c52335f526020600c20818154019055602052600c5160601c5f7fddf252ad1be2c89b69c2b068fc378daa952ba7f163c4a11628f55a4df523b3ef602080a3610a8890816100a682396080518181816103ee01526104af0152f35b63e5cfe9575f526004601cfd5b5f80fdfe60406080815260049081361015610014575f80fd5b5f91823560e01c90816306fdde0314610926578163095ea7b31461088b57816318160ddd1461086457816323b872dd146107725781632ff2e9dc1461074b578163313ce5671461072f57816332cb6b0c146107085781633644e5151461066757816340c10f191461048557816370a08231146104515781637ecebe001461041d5781638da5cb5b146103d957816395d89b4114610375578163a9059cbb146102ea578163d505accf14610107575063dd62ed3e146100d0575f80fd5b346101035780600319360112610103576020906100fc6100ee6109ad565b6100f66109c7565b906109dd565b9051908152f35b5080fd5b8284346102e75760e03660031901126102e7576101226109ad565b61012a6109c7565b9260443591606435926084359260ff841684036102e3576001600160a01b03968716946e22d473030f116ddee9f6b43ac78ba3861883191517156102d757610170610a1a565b94602095868101907129b0b7902830bab637902321902a37b5b2b760711b8252519020908242116102cb5760c09798998451961697889665383775081901600e52878c5288600c2094855480957f8b73c3c69bb8fe3d512ecc4cf759cc79239f7b179b0ffacaa9a75d522b39400f84528b84019081528d8985017fc89efdaa54c0f20c7adf612882df0950f5a951637e0307cdcb4c672f298b8bc68152606086019c8d469052608087019330855260a08820602e527f6e71edae12b1b97f4d1f60370fef10105fa2faae0126114a169c64845d6126c988525252898b525260a082015220604e526042602c208a5260ff16865260a435835260c435606052858060808b60015afa90873d51036102bf577f8c5be1e5ebec7d5bd14f71427d1e84f3dd0314c0f7b2291e5b200ac8c7c3b9259798999a50019055866303faf4f960a51b1790526034602c2055a380f35b8a63ddafbaef8b52601cfd5b8a631a15a3cc8a52601cfd5b88633f68539a8852601cfd5b8580fd5b80fd5b8284346102e757816003193601126102e7576103046109ad565b602435916387a211a2600c5233815260209485600c209081549081861161036a575084900390555282600c208181540190558252600c5160601c337fddf252ad1be2c89b69c2b068fc378daa952ba7f163c4a11628f55a4df523b3ef8480a35160018152f35b63f4d678b88452601cfd5b8383346101035781600319360112610103578051918183019083821067ffffffffffffffff8311176103c65750926103c29382528252635350464360e01b60208301525191829182610966565b0390f35b634e487b7160e01b815260418552602490fd5b505034610103578160031936011261010357517f00000000000000000000000000000000000000000000000000000000000000006001600160a01b03168152602090f35b5050346101035760203660031901126101035760209161043b6109ad565b906338377508600c525281600c20549051908152f35b5050346101035760203660031901126101035760209161046f6109ad565b906387a211a2600c525281600c20549051908152f35b919050346106635780600319360112610663576104a06109ad565b60243591906001600160a01b037f000000000000000000000000000000000000000000000000000000000000000081163303610628576805345cdf77eb68f44c80549585870192838811610615576b204fce5e3e2502611000000084116105d257841696871561058f578310610584575091602093917f3f2c9d57c068687834f0de942a9babb9e5acab57d516d3480a3c16ee165a42739593556387a211a2600c52865282600c20828154019055818352600c5160601c867fddf252ad1be2c89b69c2b068fc378daa952ba7f163c4a11628f55a4df523b3ef8580a351908152a280f35b63e5cfe9578852601cfd5b855162461bcd60e51b8152602081840152601f60248201527f53504643546f6b656e3a204d696e7420746f207a65726f2061646472657373006044820152606490fd5b855162461bcd60e51b8152602081840152601e60248201527f53504643546f6b656e3a204d617820737570706c7920657863656564656400006044820152606490fd5b634e487b7160e01b895260118252602489fd5b825162461bcd60e51b8152602081870152601560248201527429a82321aa37b5b2b71d1027b7363c9037bbb732b960591b6044820152606490fd5b8280fd5b50503461010357816003193601126101035760209060a0610686610a1a565b838101907129b0b7902830bab637902321902a37b5b2b760711b82525190208251907f8b73c3c69bb8fe3d512ecc4cf759cc79239f7b179b0ffacaa9a75d522b39400f8252848201527fc89efdaa54c0f20c7adf612882df0950f5a951637e0307cdcb4c672f298b8bc683820152466060820152306080820152209051908152f35b505034610103578160031936011261010357602090516b204fce5e3e250261100000008152f35b5050346101035781600319360112610103576020905160128152f35b505034610103578160031936011261010357602090516b033b2e3c9fd0803ce80000008152f35b8284346102e75760603660031901126102e75761078d6109ad565b906107966109c7565b604435918360601b6e22d473030f116ddee9f6b43ac78ba3330361081e575b6387a211a217600c5260209586600c209081549081861161036a5750849003905552600c8481208054830190559084525160601c906001600160a01b03167fddf252ad1be2c89b69c2b068fc378daa952ba7f163c4a11628f55a4df523b3ef8480a35160018152f35b33602052637f5e9f208117600c526034600c2080548019610841575b50506107b5565b8086116108585785900390556387a211a28861083a565b886313be252b8552601cfd5b5050346101035781600319360112610103576020906805345cdf77eb68f44c549051908152f35b8284346102e757816003193601126102e7576108a56109ad565b602435906001600160a01b0381166e22d473030f116ddee9f6b43ac78ba318821915171561091a57602080955052637f5e9f20600c52338252806034600c20558152602c5160601c907f8c5be1e5ebec7d5bd14f71427d1e84f3dd0314c0f7b2291e5b200ac8c7c3b925843392a35160018152f35b84633f68539a8452601cfd5b5050346101035781600319360112610103576103c290610944610a1a565b907129b0b7902830bab637902321902a37b5b2b760711b602083015251918291825b602080825282518183018190529093925f5b82811061099957505060409293505f838284010152601f8019910116010190565b818101860151848201604001528501610978565b600435906001600160a01b03821682036109c357565b5f80fd5b602435906001600160a01b03821682036109c357565b906001600160a01b0381166e22d473030f116ddee9f6b43ac78ba314610a1357602052637f5e9f20600c525f526034600c205490565b50505f1990565b604051906040820182811067ffffffffffffffff821117610a3e5760405260128252565b634e487b7160e01b5f52604160045260245ffdfea2646970667358221220f59b57da31de922763045e59f39dbe903c0624acdcdf797f8ebc6c8de8100d0864736f6c63430008140033","linkReferences":{}},"methodIdentifiers":{"DOMAIN_SEPARATOR()":"3644e515","INITIAL_SUPPLY()":"2ff2e9dc","MAX_SUPPLY()":"32cb6b0c","allowance(address,address)":"dd62ed3e","approve(address,uint256)":"095ea7b3","balanceOf(address)":"70a08231","decimals()":"313ce567","mint(address,uint256)":"40c10f19","name()":"06fdde03","nonces(address)":"7ecebe00","owner()":"8da5cb5b","permit(address,address,uint256,uint256,uint8,bytes32,bytes32)":"d505accf","symbol()":"95d89b41","totalSupply()":"18160ddd","transfer(address,uint256)":"a9059cbb","transferFrom(address,address,uint256)":"23b872dd"},"id":17}