{"abi":[{"type":"constructor","inputs":[{"name":"_spfcToken","type":"address","internalType":"address"}],"stateMutability":"nonpayable"},{"type":"function","name":"criarEvento","inputs":[{"name":"torcidaId","type":"uint256","internalType":"uint256"},{"name":"_name","type":"string","internalType":"string"},{"name":"_description","type":"string","internalType":"string"},{"name":"_eventDate","type":"uint256","internalType":"uint256"},{"name":"_location","type":"string","internalType":"string"},{"name":"_maxParticipants","type":"uint256","internalType":"uint256"},{"name":"_pricePerPerson","type":"uint256","internalType":"uint256"}],"outputs":[],"stateMutability":"nonpayable"},{"type":"function","name":"criarTorcida","inputs":[{"name":"_name","type":"string","internalType":"string"},{"name":"_description","type":"string","internalType":"string"}],"outputs":[],"stateMutability":"nonpayable"},{"type":"function","name":"criarVotacao","inputs":[{"name":"torcidaId","type":"uint256","internalType":"uint256"},{"name":"_title","type":"string","internalType":"string"},{"name":"_description","type":"string","internalType":"string"},{"name":"_duration","type":"uint256","internalType":"uint256"}],"outputs":[],"stateMutability":"nonpayable"},{"type":"function","name":"entrarTorcida","inputs":[{"name":"torcidaId","type":"uint256","internalType":"uint256"},{"name":"stakeAmount","type":"uint256","internalType":"uint256"}],"outputs":[],"stateMutability":"nonpayable"},{"type":"function","name":"eventos","inputs":[{"name":"","type":"uint256","internalType":"uint256"}],"outputs":[{"name":"id","type":"uint256","internalType":"uint256"},{"name":"torcidaId","type":"uint256","internalType":"uint256"},{"name":"name","type":"string","internalType":"string"},{"name":"description","type":"string","internalType":"string"},{"name":"eventDate","type":"uint256","internalType":"uint256"},{"name":"location","type":"string","internalType":"string"},{"name":"maxParticipants","type":"uint256","internalType":"uint256"},{"name":"currentParticipants","type":"uint256","internalType":"uint256"},{"name":"pricePerPerson","type":"uint256","internalType":"uint256"},{"name":"active","type":"bool","internalType":"bool"},{"name":"organizer","type":"address","internalType":"address"}],"stateMutability":"view"},{"type":"function","name":"getEvento","inputs":[{"name":"eventoId","type":"uint256","internalType":"uint256"}],"outputs":[{"name":"id","type":"uint256","internalType":"uint256"},{"name":"torcidaId","type":"uint256","internalType":"uint256"},{"name":"name","type":"string","internalType":"string"},{"name":"description","type":"string","internalType":"string"},{"name":"eventDate","type":"uint256","internalType":"uint256"},{"name":"location","type":"string","internalType":"string"},{"name":"maxParticipants","type":"uint256","internalType":"uint256"},{"name":"currentParticipants","type":"uint256","internalType":"uint256"},{"name":"pricePerPerson","type":"uint256","internalType":"uint256"},{"name":"active","type":"bool","internalType":"bool"},{"name":"organizer","type":"address","internalType":"address"}],"stateMutability":"view"},{"type":"function","name":"getTorcida","inputs":[{"name":"torcidaId","type":"uint256","internalType":"uint256"}],"outputs":[{"name":"id","type":"uint256","internalType":"uint256"},{"name":"name","type":"string","internalType":"string"},{"name":"description","type":"string","internalType":"string"},{"name":"leader","type":"address","internalType":"address"},{"name":"totalStaked","type":"uint256","internalType":"uint256"},{"name":"memberCount","type":"uint256","internalType":"uint256"},{"name":"active","type":"bool","internalType":"bool"},{"name":"createdAt","type":"uint256","internalType":"uint256"}],"stateMutability":"view"},{"type":"function","name":"getVotacaoResult","inputs":[{"name":"votacaoId","type":"uint256","internalType":"uint256"}],"outputs":[{"name":"totalVotes","type":"uint256","internalType":"uint256"},{"name":"optionVotes","type":"uint256[]","internalType":"uint256[]"}],"stateMutability":"view"},{"type":"function","name":"inscreverEvento","inputs":[{"name":"eventoId","type":"uint256","internalType":"uint256"}],"outputs":[],"stateMutability":"nonpayable"},{"type":"function","name":"isParticipantEvento","inputs":[{"name":"eventoId","type":"uint256","internalType":"uint256"},{"name":"user","type":"address","internalType":"address"}],"outputs":[{"name":"","type":"bool","internalType":"bool"}],"stateMutability":"view"},{"type":"function","name":"isTorcidaLeader","inputs":[{"name":"","type":"address","internalType":"address"}],"outputs":[{"name":"","type":"bool","internalType":"bool"}],"stateMutability":"view"},{"type":"function","name":"nextEventoId","inputs":[],"outputs":[{"name":"","type":"uint256","internalType":"uint256"}],"stateMutability":"view"},{"type":"function","name":"nextTorcidaId","inputs":[],"outputs":[{"name":"","type":"uint256","internalType":"uint256"}],"stateMutability":"view"},{"type":"function","name":"nextVotacaoId","inputs":[],"outputs":[{"name":"","type":"uint256","internalType":"uint256"}],"stateMutability":"view"},{"type":"function","name":"owner","inputs":[],"outputs":[{"name":"","type":"address","internalType":"address"}],"stateMutability":"view"},{"type":"function","name":"sairTorcida","inputs":[],"outputs":[],"stateMutability":"nonpayable"},{"type":"function","name":"spfcToken","inputs":[],"outputs":[{"name":"","type":"address","internalType":"contract SPFCToken"}],"stateMutability":"view"},{"type":"function","name":"torcidas","inputs":[{"name":"","type":"uint256","internalType":"uint256"}],"outputs":[{"name":"id","type":"uint256","internalType":"uint256"},{"name":"name","type":"string","internalType":"string"},{"name":"description","type":"string","internalType":"string"},{"name":"leader","type":"address","internalType":"address"},{"name":"totalStaked","type":"uint256","internalType":"uint256"},{"name":"memberCount","type":"uint256","internalType":"uint256"},{"name":"active","type":"bool","internalType":"bool"},{"name":"createdAt","type":"uint256","internalType":"uint256"}],"stateMutability":"view"},{"type":"function","name":"userTorcida","inputs":[{"name":"","type":"address","internalType":"address"}],"outputs":[{"name":"","type":"uint256","internalType":"uint256"}],"stateMutability":"view"},{"type":"function","name":"votacoes","inputs":[{"name":"","type":"uint256","internalType":"uint256"}],"outputs":[{"name":"id","type":"uint256","internalType":"uint256"},{"name":"torcidaId","type":"uint256","internalType":"uint256"},{"name":"title","type":"string","internalType":"string"},{"name":"description","type":"string","internalType":"string"},{"name":"startTime","type":"uint256","internalType":"uint256"},{"name":"endTime","type":"uint256","internalType":"uint256"},{"name":"active","type":"bool","internalType":"bool"},{"name":"totalVotes","type":"uint256","internalType":"uint256"},{"name":"creator","type":"address","internalType":"address"}],"stateMutability":"view"},{"type":"function","name":"votar","inputs":[{"name":"votacaoId","type":"uint256","internalType":"uint256"},{"name":"optionId","type":"uint256","internalType":"uint256"}],"outputs":[],"stateMutability":"nonpayable"},{"type":"event","name":"EventoCriado","inputs":[{"name":"eventoId","type":"uint256","indexed":true,"internalType":"uint256"},{"name":"torcidaId","type":"uint256","indexed":true,"internalType":"uint256"},{"name":"name","type":"string","indexed":false,"internalType":"string"}],"anonymous":false},{"type":"event","name":"TorcidaCriada","inputs":[{"name":"torcidaId","type":"uint256","indexed":true,"internalType":"uint256"},{"name":"name","type":"string","indexed":false,"internalType":"string"},{"name":"leader","type":"address","indexed":true,"internalType":"address"}],"anonymous":false},{"type":"event","name":"UsuarioEntrouTorcida","inputs":[{"name":"torcidaId","type":"uint256","indexed":true,"internalType":"uint256"},{"name":"user","type":"address","indexed":true,"internalType":"address"},{"name":"stakeAmount","type":"uint256","indexed":false,"internalType":"uint256"}],"anonymous":false},{"type":"event","name":"UsuarioInscritoEvento","inputs":[{"name":"eventoId","type":"uint256","indexed":true,"internalType":"uint256"},{"name":"user","type":"address","indexed":true,"internalType":"address"}],"anonymous":false},{"type":"event","name":"UsuarioSaiuTorcida","inputs":[{"name":"torcidaId","type":"uint256","indexed":true,"internalType":"uint256"},{"name":"user","type":"address","indexed":true,"internalType":"address"}],"anonymous":false},{"type":"event","name":"VotacaoCriada","inputs":[{"name":"votacaoId","type":"uint256","indexed":true,"internalType":"uint256"},{"name":"torcidaId","type":"uint256","indexed":true,"internalType":"uint256"},{"name":"title","type":"string","indexed":false,"internalType":"string"}],"anonymous":false},{"type":"event","name":"VotoEmitido","inputs":[{"name":"votacaoId","type":"uint256","indexed":true,"internalType":"uint256"},{"name":"voter","type":"address","indexed":true,"internalType":"address"},{"name":"optionId","type":"uint256","indexed":false,"internalType":"uint256"}],"anonymous":false}],"bytecode":{"object":"0x60c03461009d57601f61227538819003918201601f19168301916001600160401b038311848410176100a15780849260209460405283398101031261009d57516001600160a01b0381169081900361009d576001600555600160065560016007553360805260a0526040516121bf90816100b6823960805181611185015260a0518181816106e401528181610a390152818161100a01526119700152f35b5f80fd5b634e487b7160e01b5f52604160045260245ffdfe60806040526004361015610011575f80fd5b5f3560e01c8063087e9d0f14611c79578063220af58714611bbe578063345eb9b114611b4f57806347c62cf7146119155780634bebf6f9146113a35780634fa5a16f146111f1578063508e0c82146111b45780638da5cb5b146111705780638ec2e66a14611073578063901ca23014611056578063983a5f8414611039578063a0a51e0c14610ff5578063a1d35df914610fd8578063a2946b5014610c15578063a98f822814610bc4578063bc6731981461093b578063be6402cd1461066e578063e4e3eaca146105e0578063ea11b9f6146105a8578063eb24eb62146105375763fb3ca20d14610100575f80fd5b34610533576040366003190112610533576004356001600160401b03811161053357610130903690600401611f11565b6024356001600160401b0381116105335761014f903690600401611f11565b8151156104ef57335f52600160205261016c60405f205415611f92565b6005549061017982611ff3565b6005556040519061010082018281106001600160401b038211176104125760405282825283602083015260408201523360608201525f60808201525f60a0820152600160c08201524260e0820152815f525f60205260405f208151815560208201518051906001600160401b0382116104125781906101fb6001850154611d03565b601f811161049f575b50602090601f8311600114610431575f92610426575b50508160011b915f199060031b1c19161760018201555b60408201518051906001600160401b0382116104125781906102566002850154611d03565b601f81116103c2575b50602090601f8311600114610354575f92610349575b50508160011b915f199060031b1c19161760028201555b6003810160018060a01b036060840151166bffffffffffffffffffffffff60a01b8254161790556080820151600482015560a08201516005820155600760e0600683019360c081015115159460ff199560ff8783541691161790550151910155335f5260016020528160405f20556002602052600160405f20918254161790557f5f8504fa8663885da2685463eda0c00bb7ddbdfb34a42d3ba082e742df3eccf4604051602081528061034433956020830190611dfd565b0390a3005b015190505f80610275565b9250600284015f5260205f20905f935b601f19841685106103a7576001945083601f1981161061038f575b505050811b01600282015561028c565b01515f1960f88460031b161c191690555f808061037f565b81810151835560209485019460019093019290910190610364565b909150600284015f5260205f20601f840160051c81016020851061040b575b90849392915b601f830160051c820181106103fd57505061025f565b5f81558594506001016103e7565b50806103e1565b634e487b7160e01b5f52604160045260245ffd5b015190505f8061021a565b9250600184015f5260205f20905f935b601f1984168510610484576001945083601f1981161061046c575b505050811b016001820155610231565b01515f1960f88460031b161c191690555f808061045c565b81810151835560209485019460019093019290910190610441565b909150600184015f5260205f20601f840160051c8101602085106104e8575b90849392915b601f830160051c820181106104da575050610204565b5f81558594506001016104c4565b50806104be565b606460405162461bcd60e51b815260206004820152602060248201527f546f72636964614f7267616e697a6164613a204e616d652072657175697265646044820152fd5b5f80fd5b34610533576020366003190112610533576004355f525f60205260405f2080546105a460018060a01b036003840154166004840154600585015460ff60068701541691600787015493610598600261059160018b01611d5c565b9901611d5c565b60405198899889611eb8565b0390f35b34610533576020366003190112610533576001600160a01b036105c9611f7c565b165f526001602052602060405f2054604051908152f35b34610533576020366003190112610533576004355f52600460205260405f208054906105a46001820154916004810154936006820154600783015460088401549160098501549461063360028201611d5c565b9861064c600561064560038501611d5c565b9301611d5c565b6040519a8b9a60088a901c6001600160a01b03169960ff16989294928c611e3b565b346105335761067c36611f66565b90805f5260205f815261069460405f20541515612001565b815f525f815260ff600660405f20015416156108eb57335f52600181526106bf60405f205415611f92565b683635c9adc5dea000008310610895576040516370a0823160e01b81523360048201527f00000000000000000000000000000000000000000000000000000000000000006001600160a01b031691908181602481865afa80156108005785915f91610864575b501061080b576040516323b872dd60e01b815233600482015230602482015260448101859052918190839060649082905f905af1918215610800577f5440da29ea0c8c7167b6934813b00392cb6d1e3d67d65b52621ca45a6d66cc4f926107d3575b50825f525f8152600460405f20016107a0858254612077565b9055825f525f8152600560405f20016107b98154611ff3565b9055335f52600181528260405f20556040519384523393a3005b6107f290823d84116107f9575b6107ea8183611d3b565b81019061205f565b5084610787565b503d6107e0565b6040513d5f823e3d90fd5b6084906040519062461bcd60e51b82526004820152602c60248201527f546f72636964614f7267616e697a6164613a20496e73756666696369656e742060448201526b535046432062616c616e636560a01b6064820152fd5b809250838092503d831161088e575b61087d8183611d3b565b810103126105335784905186610725565b503d610873565b6084906040519062461bcd60e51b82526004820152602960248201527f546f72636964614f7267616e697a6164613a204d696e696d756d207374616b65604482015268081c995c5d5a5c995960ba1b6064820152fd5b6084906040519062461bcd60e51b82526004820152602360248201527f546f72636964614f7267616e697a6164613a20546f726369646120696e61637460448201526269766560e81b6064820152fd5b34610533576020806003193601126105335760043590815f526004815260405f2090815415610b6f5760ff60098301541615610b2057600a820190335f5281815260ff60405f205416610ace576007830192835460068201541115610a8957600890335f52600183526109b760405f205460018301541461213d565b01548181610a09575b5050335f525260405f20600160ff198254161790556109df8154611ff3565b905533907f81505c3680466d0a61762d0c7a47e01dd4466a681c9fe10a8c7f50119cfe30ad5f80a3005b6040516323b872dd60e01b81523360048201523060248201526044810192909252816064815f6001600160a01b037f0000000000000000000000000000000000000000000000000000000000000000165af1801561080057610a6c575b816109c0565b610a8290823d84116107f9576107ea8183611d3b565b5084610a66565b60405162461bcd60e51b815260048101839052601e60248201527f546f72636964614f7267616e697a6164613a204576656e746f2066756c6c00006044820152606490fd5b6084906040519062461bcd60e51b82526004820152602560248201527f546f72636964614f7267616e697a6164613a20416c72656164792072656769736044820152641d195c995960da1b6064820152fd5b6084906040519062461bcd60e51b82526004820152602260248201527f546f72636964614f7267616e697a6164613a204576656e746f20696e61637469604482015261766560f01b6064820152fd5b6084906040519062461bcd60e51b82526004820152602860248201527f546f72636964614f7267616e697a6164613a204576656e746f20646f6573206e6044820152671bdd08195e1a5cdd60c21b6064820152fd5b34610533576040366003190112610533576024356001600160a01b03811690819003610533576004355f526004602052600a60405f2001905f52602052602060ff60405f2054166040519015158152f35b34610533576080366003190112610533576024356001600160401b03811161053357610c45903690600401611f11565b6044356001600160401b03811161053357610c64903690600401611f11565b906004355f525f602052610c8860018060a01b03600360405f200154163314612084565b6004355f525f602052610ca060405f20541515612001565b60643515610f8757600654610cb481611ff3565b600655805f52600360205260405f20818155600435600182015582516001600160401b03811161041257610ceb6002830154611d03565b601f8111610f43575b506020601f8211600114610eda5790806002925f91610ecf575b508160011b915f199060031b1c1916179101555b805f526003602052600360405f200183516001600160401b03811161041257610d4b8254611d03565b601f8111610e8a575b506020601f8211600114610e255781929394955f92610e1a575b50508160011b915f199060031b1c19161790555b805f52600360205242600460405f200155600a610da160643542612077565b825f52600360205260405f2090600582015560068101600160ff198254161790555f600782015501336bffffffffffffffffffffffff60a01b8254161790557f7669fc2ec005bf23f23f4fa01be339767977ffcac406137730eeb220232e46236040516020815280610344600435956020830190611dfd565b015190508580610d6e565b825f5260205f20905f5b601f1984168110610e72575060019394959683601f19811610610e5a575b505050811b019055610d82565b01515f1960f88460031b161c19169055858080610e4d565b9091602060018192858b015181550193019101610e2f565b825f5260205f20601f830160051c81019160208410610ec5575b601f0160051c01905b818110610eba5750610d54565b5f8155600101610ead565b9091508190610ea4565b905085015187610d0e565b600283015f5260205f20905f5b601f1984168110610f2b57509160019160029382601f19811610610f13575b5050811b01910155610d22565b8701515f1960f88460031b161c191690558780610f06565b9091602060018192858a015181550193019101610ee7565b600283015f5260205f20601f830160051c810160208410610f80575b601f830160051c82018110610f75575050610cf4565b5f8155600101610f5f565b5080610f5f565b60405162461bcd60e51b815260206004820152602360248201527f546f72636964614f7267616e697a6164613a20496e76616c696420647572617460448201526234b7b760e91b6064820152608490fd5b34610533575f366003190112610533576020600754604051908152f35b34610533575f366003190112610533576040517f00000000000000000000000000000000000000000000000000000000000000006001600160a01b03168152602090f35b34610533575f366003190112610533576020600654604051908152f35b34610533575f366003190112610533576020600554604051908152f35b3461053357602080600319360112610533576004355f526003815260405f2061109e815415156120df565b60078101546040519261016084018481106001600160401b038211176104125760409493929452600a808452818401926101403685376008015f5b8281106111285750505060405193849360408501918552604083860152518091526060840192915f5b82811061111157505050500390f35b835185528695509381019392810192600101611102565b805f979596975281845260405f205490875181101561115c5761115391858260051b8a010152611ff3565b959493956110d9565b634e487b7160e01b5f52603260045260245ffd5b34610533575f366003190112610533576040517f00000000000000000000000000000000000000000000000000000000000000006001600160a01b03168152602090f35b34610533576020366003190112610533576001600160a01b036111d5611f7c565b165f526002602052602060ff60405f2054166040519015158152f35b34610533576111ff36611f66565b90805f5260206003815260405f20611219815415156120df565b60ff60068201541615611352576005810154421161130f5760098101335f5280835260ff60405f2054166112cc577f4e7fa6b583893bc7ec081cb7b7d286eebd38ac1ae044c360d9fc9ccf8d939bce9291600791335f526001845261128760405f205460018401541461213d565b335f52835260405f20600160ff19825416179055855f5260088101835260405f206112b28154611ff3565b9055016112bf8154611ff3565b90556040519384523393a3005b6064836040519062461bcd60e51b825280600483015260248201527f546f72636964614f7267616e697a6164613a20416c726561647920766f7465646044820152fd5b6064826040519062461bcd60e51b825280600483015260248201527f546f72636964614f7267616e697a6164613a20566f746163616f20656e6465646044820152fd5b60405162461bcd60e51b815260048101839052602360248201527f546f72636964614f7267616e697a6164613a20566f746163616f20696e61637460448201526269766560e81b6064820152608490fd5b346105335760e0366003190112610533576024356001600160401b038111610533576113d3903690600401611f11565b6044356001600160401b038111610533576113f2903690600401611f11565b6084356001600160401b03811161053357611411903690600401611f11565b6004355f525f60205261143460018060a01b03600360405f200154163314612084565b6004355f525f60205261144c60405f20541515612001565b4260643511156118b85760a4351561185f576007549161146b83611ff3565b600755825f52600460205260405f20838155600435600182015584516001600160401b038111610412576114a26002830154611d03565b601f811161181b575b506020601f82116001146117b25790806002925f916117a7575b508160011b915f199060031b1c1916179101555b825f526004602052600360405f2001908051906001600160401b0382116104125781906115068454611d03565b601f811161175a575b50602090601f83116001146116f2575f926116e7575b50508160011b915f199060031b1c19161790555b815f52600460205260405f209060643560048301558051906001600160401b0382116104125761156c6005840154611d03565b601f811161169f575b50602090601f831160011461163557600592915f918361162a575b50508160011b915f199060031b1c1916179101555b805f526004602052600960405f2060a43560068201555f600782015560c435600882015501600181546101008260a81b033360081b16906affffffffffffffffffffff60a81b16171790557fb573f5a2ddf4eb8fab4b5daf5366235326899ae43882c6f93445cfe727f606de6040516020815280610344600435956020830190611dfd565b015190508680611590565b90601f19831691600585015f5260205f20925f5b8181106116875750916001939185600596941061166f575b505050811b019101556115a5565b01515f1960f88460031b161c19169055868080611661565b92936020600181928786015181550195019301611649565b600584015f5260205f20601f840160051c810191602085106116dd575b601f0160051c01905b8181106116d25750611575565b5f81556001016116c5565b90915081906116bc565b015190508680611525565b9250835f5260205f20905f935b601f198416851061173f576001945083601f19811610611727575b505050811b019055611539565b01515f1960f88460031b161c1916905586808061171a565b818101518355602094850194600190930192909101906116ff565b909150835f5260205f20601f840160051c8101602085106117a0575b90849392915b601f830160051c8201811061179257505061150f565b5f815585945060010161177c565b5080611776565b9050870151886114c5565b600283015f5260205f20905f5b601f198416811061180357509160019160029382601f198116106117eb575b5050811b019101556114d9565b8901515f1960f88460031b161c1916905588806117de565b9091602060018192858c0151815501930191016117bf565b600283015f5260205f20601f830160051c810160208410611858575b601f830160051c8201811061184d5750506114ab565b5f8155600101611837565b5080611837565b60405162461bcd60e51b815260206004820152602b60248201527f546f72636964614f7267616e697a6164613a20496e76616c6964206d6178207060448201526a61727469636970616e747360a81b6064820152608490fd5b60405162461bcd60e51b815260206004820152602f60248201527f546f72636964614f7267616e697a6164613a204576656e742064617465206d7560448201526e737420626520696e2066757475726560881b6064820152608490fd5b34610533575f36600319011261053357335f5260206001815260405f2054908115611af8575f82815280825260409020600301546001600160a01b039081163314611aa4576040516370a0823160e01b8152306004820152907f0000000000000000000000000000000000000000000000000000000000000000168282602481845afa918215610800575f92611a75575b50835f525f8352600460405f2001805490838203918211611a615755835f525f8352600560405f20019081548015611a61575f938593604492861901905533855260018452846040812055604051948593849263a9059cbb60e01b845233600485015260248401525af1801561080057611a43575b33837f0322fbd9d571088ec48ee9f0be20b47fa2d9fca9bd374bd9b4ba5e4eca81cafc5f80a3005b81611a5992903d106107f9576107ea8183611d3b565b508180611a1b565b634e487b7160e01b5f52601160045260245ffd5b9091508281813d8311611a9d575b611a8d8183611d3b565b81010312610533575190846119a6565b503d611a83565b60405162461bcd60e51b815260048101839052602660248201527f546f72636964614f7267616e697a6164613a204c65616465722063616e6e6f74604482015265206c6561766560d01b6064820152608490fd5b6084906040519062461bcd60e51b82526004820152602a60248201527f546f72636964614f7267616e697a6164613a2055736572206e6f7420696e20616044820152696e7920746f726369646160b01b6064820152fd5b34610533576020366003190112610533576004355f525f60205260405f2080546105a4611b7e60018401611d5c565b92611b8b60028201611d5c565b9060018060a01b036003820154166004820154600583015491600760ff6006860154169401549460405198899889611eb8565b34610533576020366003190112610533576004355f52600360205260405f208054600182015491611bf160028201611d5c565b611bfd60038301611d5c565b916004810154926005820154611c5860ff60068501541692611c4a600786015495600a60018060a01b0391015416966040519a8b9a8b5260208b01526101208060408c01528a0190611dfd565b9088820360608a0152611dfd565b94608087015260a0860152151560c085015260e08401526101008301520390f35b34610533576020366003190112610533576004355f52600460205260405f208054906105a4600182015491611cb060028201611d5c565b93611cbd60038301611d5c565b916004810154611ccf60058301611d5c565b60068301549060078401549260096008860154950154966040519a8b9a60ff60018060a01b038b60081c169a16988c611e3b565b90600182811c92168015611d31575b6020831014611d1d57565b634e487b7160e01b5f52602260045260245ffd5b91607f1691611d12565b90601f801991011681019081106001600160401b0382111761041257604052565b9060405191825f825492611d6f84611d03565b9081845260019485811690815f14611dda5750600114611d9a575b5050611d9892500383611d3b565b565b909391505f52602090815f20935f915b818310611dc2575050611d9893508201015f80611d8a565b85548884018501529485019487945091830191611daa565b915050611d9894506020925060ff191682840152151560051b8201015f80611d8a565b91908251928382525f5b848110611e27575050825f602080949584010152601f8019910116010190565b602081830181015184830182015201611e07565b99969b9a97949293611e6e611e8f956101409b989460208e611e7c968152015260408d61016091829101528d0190611dfd565b908b820360608d0152611dfd565b9160808a015288820360a08a0152611dfd565b60c087019890985260e086015261010085015215156101208401526001600160a01b0316910152565b949192611ede60e09794611eec939b9a99969b88526101008060208a0152880190611dfd565b908682036040880152611dfd565b6001600160a01b039098166060850152608084015260a0830152151560c08201520152565b81601f82011215610533578035906001600160401b0382116104125760405192611f45601f8401601f191660200185611d3b565b8284526020838301011161053357815f926020809301838601378301015290565b6040906003190112610533576004359060243590565b600435906001600160a01b038216820361053357565b15611f9957565b60405162461bcd60e51b815260206004820152602c60248201527f546f72636964614f7267616e697a6164613a205573657220616c72656164792060448201526b696e206120746f726369646160a01b6064820152608490fd5b5f198114611a615760010190565b1561200857565b60405162461bcd60e51b815260206004820152602960248201527f546f72636964614f7267616e697a6164613a20546f726369646120646f6573206044820152681b9bdd08195e1a5cdd60ba1b6064820152608490fd5b90816020910312610533575180151581036105335790565b91908201809211611a6157565b1561208b57565b60405162461bcd60e51b815260206004820152602660248201527f546f72636964614f7267616e697a6164613a204f6e6c7920746f7263696461206044820152653632b0b232b960d11b6064820152608490fd5b156120e657565b60405162461bcd60e51b815260206004820152602960248201527f546f72636964614f7267616e697a6164613a20566f746163616f20646f6573206044820152681b9bdd08195e1a5cdd60ba1b6064820152608490fd5b1561214457565b60405162461bcd60e51b815260206004820152601f60248201527f546f72636964614f7267616e697a6164613a204e6f742061206d656d626572006044820152606490fdfea2646970667358221220fd92f15ec2ab9ca50ea620a91d3889ea16ce726d50c182d6010df5b39ab5f55164736f6c63430008140033","linkReferences":{}},"methodIdentifiers":{"criarEvento(uint256,string,string,uint256,string,uint256,uint256)":"4bebf6f9","criarTorcida(string,string)":"fb3ca20d","criarVotacao(uint256,string,string,uint256)":"a2946b50","entrarTorcida(uint256,uint256)":"be6402cd","eventos(uint256)":"087e9d0f","getEvento(uint256)":"e4e3eaca","getTorcida(uint256)":"eb24eb62","getVotacaoResult(uint256)":"8ec2e66a","inscreverEvento(uint256)":"bc673198","isParticipantEvento(uint256,address)":"a98f8228","isTorcidaLeader(address)":"508e0c82","nextEventoId()":"a1d35df9","nextTorcidaId()":"901ca230","nextVotacaoId()":"983a5f84","owner()":"8da5cb5b","sairTorcida()":"47c62cf7","spfcToken()":"a0a51e0c","torcidas(uint256)":"345eb9b1","userTorcida(address)":"ea11b9f6","votacoes(uint256)":"220af587","votar(uint256,uint256)":"4fa5a16f"},"id":18}